:1000000037110020130101803715024013058501C7
:1000100083250500B753000093835383B3E5750030
:100020002320B500371502401305C50183250500BF
:10003000B7032000B3E575002320B5003715014054
:1000400083250500B7030FF09383F300B3F5750024
:10005000B743B00B938303DDB3E575002320B500F0
:10006000371501401305C5008325050093030006DD
:10007000B3E575002320B5003715024013050501CF
:1000800083250500B7032000B3E575002320B500E4
:1000900093C3F3FFB3F575002320B5003755004037
:1000A0001305454083150500930300FCB3F5750067
:1000B00093038000B3E575002310B5003755004069
:1000C0001305C54183150500B7F3FFFFB3F57500B0
:1000D00093038002B3E575002310B5003755004047
:1000E000130505408315050093031000B3E5750063
:1000F0002310B50037550040130505408315050052
:1001000093030040B3E575002310B500EF00803C79
:100110009307E004EF004052EF00801DEF00100253
:100120001301C1FF2320C1001716000013064691DA
:10013000EF0000300326010013014100EF00100022
:10014000EF000033130181FF23206100232271009F
:100150001303000093030000EF00C0268323410037
:1001600003230100130181001301C1FF2320C100FB
:10017000171600001306368DEF00802B03260100B2
:1001800013014100EF00807B130181FF23206100F8
:10019000232271001303100093030000EF0080225C
:1001A0008323410003230100130181001301C1FFD8
:1001B0002320C1001716000013068688EF00402791
:1001C0000326010013014100EF004077EF00402AB1
:1001D0001301C1FF2320C100171600001306B686C5
:1001E000EF00002503260100130141006F0000000D
:1001F000130181FF232011002322A10037050020D5
:100200001305C5022300F50093F7070F93E7C70016
:10021000EF00C033EF00407DEF00007D93F7870FC4
:10022000EF00C032EF00407CEF00007C370500207B
:100230001305C5028307050093F7F700939747005E
:1002400093E7C700EF008030EF00007AEF00C0793D
:1002500093F7870FEF00802FEF000079EF00C07851
:100260000325410083200100130181006780000005
:10027000130181FF232011002322A1003705002054
:100280001305C5022320F50093F7070F93E7D70066
:10029000EF00C02BEF004075EF00007593F7970F4C
:1002A000EF00C02AEF004074EF0000743705002013
:1002B0001305C5028327050093F7F70093974700BE
:1002C00093E7D700EF008028EF000072EF00C071C5
:1002D00093F7970FEF008027EF000071EF00C070D9
:1002E0000325410083200100130181006780000085
:1002F000130181FF232011002322F100EF00006C85
:100300009307C003EF008024EF00006EEF00C06D84
:1003100093078003EF008023EF0080679307C003FB
:10032000EF00C022EF00406CEF00006C93078003E9
:10033000EF00C021EF00C0659307C003EF0000216C
:10034000EF00806AEF00406A93078003EF0000200F
:10035000EF0000649307C002EF00401FEF00C06889
:10036000EF00806893078002EF00401EEF00C05F3F
:1003700093078002EFF0DFE7EF00005F9307C00014
:10038000EFF01FE7EF00405E93076000EFF05FE6DD
:10039000EF00805D93071000EFF09FE5EF00C05C79
:1003A000EF00805C93072000EFF09FE4EF00C05B5C
:1003B000EF00805B8327410083200100130181004F
:1003C000678000001301C1FF23201100630A0302AC
:1003D0001303000C3303730093070300EFF05FE196
:1003E000EF008060EF004060EF000060EF00C05F52
:1003F000EF00805F8320010013014100678000004F
:10040000130300083303730093070300EFF05FDE6C
:10041000EF00805DEF00405DEF00005DEF00C05C2D
:10042000EF00805C83200100130141006780000021
:10043000130181FF232011002322F100830706000E
:1004400063800702EFF0DFE2EF00005AEF00C059CF
:10045000EF008059EF004059130616006FF01FFEA1
:100460008327410083200100130181006780000081
:10047000130181FF232011002322F10093071000B4
:10048000EFF01FD7EF00404EEF00004E83274100F2
:10049000832001001301810067800000130141FFE8
:1004A000232011002322A1002324B100375500404E
:1004B000130585418315050093F52500E39805FE96
:1004C0008325810003254100832001001301C10021
:1004D000678000001301C1FE232011002322C10008
:1004E0002324B1002326A1002328710037550040A2
:1004F000130505408315050093E505502310B5004D
:100500003755004013054541831505003755004018
:10051000130585410316050013160601B3E5C50052
:10052000B703030093831300B3F57500E39A75FCDA
:10053000832301010325C100832581000326410097
:10054000832001001301410167800000130141FF76
:10055000232011002322A1002324B100375500409D
:10056000130545418315050093F50508E38805FE4D
:1005700037550040130505412300F5008325810010
:1005800003254100832001001301C10067800000A2
:10059000130141FF232011002322A1002324B100D5
:1005A00037550040130505408315050093F5F5BF49
:1005B0002310B5008325810003254100832001001D
:1005C0001301C10067800000130141FF23201100C7
:1005D0002322A1002324B1003755004013054541D3
:1005E0008315050093F50508E38805FE8325810042
:1005F00003254100832001001301C1006780000032
:10060000130141FF232011002322A1002324B10064
:1006100037550040130505408315050093E5052077
:100620002310B500832581000325410083200100AC
:100630001301C100678000001301C1FE23201100D7
:100640002322A1002324B1002326C1002328710006
:1006500037550040130505412300F500375500408C
:1006600013054541831505003755004013058541A5
:100670000316050013160601B3E5C500B70307000E
:1006800093832308B3F57500E39A75FC8323010176
:100690000326C1008325810003254100832001003A
:1006A0001301410167800000130101FF23201100A5
:1006B0002322A1002324B1002326C1003755004086
:1006C0001305454183150500375500401305854145
:1006D0000316050013160601B3E5C5003705002013
:1006E000130545042320B5000326C100832581009E
:1006F00003254100832001001301010167800000F0
:10070000130141FF232011002322A1002324B10063
:1007100037550040130545418325050093F54500F5
:10072000E38805FE83258100032541008320010025
:100730001301C100678000001301C1FE23201100D6
:100740002322A1002324B100232661002328C10015
:100750003703002013034304375500401305454178
:100760008315050037550040130585410316050024
:1007700013160601B3E5C500B703030093832300F6
:10078000B3F57500E39A75FC3755004013054541F4
:100790008315050037550040130585418315050075
:1007A000EFF01FDFEFF0DFE537550040130545415F
:1007B0008325050093F50504E38805FE37550040C1
:1007C00013050541830705002300F30003260101FB
:1007D0000323C100832581000325410083200100FC
:1007E0001301410167800000130141FE2320110025
:1007F0002322A1002324B1002326610023287100B5
:10080000232A5100232CC100375500401305054110
:100810002300F500375500401305454183150500B9
:1008200037550040130585410316050013160601D0
:10083000B3E5C500B703030093832300B3F5750048
:10084000E39A75FC375500401305454183150500B3
:10085000375500401305854183150500930320009B
:1008600063FC5302375500401305454183250500BD
:1008700093F50504E38805FE37550040130505414F
:10088000830705002300F300130313009382F2FF94
:1008900063F453006FF01FFD3755004013054541C9
:1008A0008315050093F50504E38805FE37550040E0
:1008B00013050541830705002300F300130313000C
:1008C000EFF01FCDEFF0DFD3375500401305454162
:1008D0008315050093F50504E38805FE37550040B0
:1008E00013050541830705002300F300032681015A
:1008F00083224101832301010323C1008325810059
:1009000003254100832001001301C101678000001D
:10091000130181FF232011002322610037B332012C
:10092000130353401303F3FFE31E03FE03234100AD
:10093000832001001301810067800000130181FF03
:10094000232011002322610037B31E001303A3B933
:100950001303F3FFE31E03FE032341008320010082
:100960001301810067800000130181FF2320110023
:10097000232261001303A07D1303F3FFE31E03FE94
:1009800003234100832001001301810067800000E0
:10099000130181FF2320110023226100375300003F
:1009A000130343E81303F3FFE31E03FE0323410095
:1009B000832001001301810067800000130181FF83
:1009C0002320110023226100379301001303438980
:1009D0001303F3FFE31E03FE032341008320010002
:1009E0001301810067800000130181FF23201100A3
:1009F00023226100130390061303F3FFE31E03FE9B
:100A0000032341008320010013018100678000005F
:100A10001301C1FF232011001303F3FFE31E03FEA4
:100A200083200100130141006780000013000000D3
:0C0A3000000000000000000000000000BA
:0A0A3C0068656C6C6F2000686900AB
:00000001FF
