:1000000037110020130101803715024013058501C7
:1000100083250500B753000093835383B3E5750030
:100020002320B500371502401305C50183250500BF
:10003000B7032000B3E575002320B5003715014054
:1000400083250500B7F3FFFF9383F300B3F5750035
:10005000B7130000938303DDB3E575002320B500DB
:10006000371501401305054083250500B70310F03F
:100070009383F3FFB3F57500B703B008B3E57500DC
:100080002320B500371501401305C5408325050021
:1000900093030004B3E575002320B5003745014004
:1000A000130585808325050093031034B3E575009F
:1000B0002320B500374501401305C5808325050081
:1000C000B72300009383C300B3E575002320B50078
:1000D000371502401305050183250500B7032000ED
:1000E000B3E575002320B50093C3F3FFB3F57500A6
:1000F0002320B50037550040130545408315050002
:10010000930300FCB3F5750093038000B3E575001D
:100110002310B500375500401305C5418315050070
:10012000B7F3FFFFB3F5750093038002B3E57500E5
:100130002310B50037550040130505408315050011
:1001400093031000B3E575002310B5003755004048
:10015000130505408315050093030040B3E57500C2
:100160002310B500EF0080389307E004EF00404E05
:10017000EF00401DEF00D00893071004EF0080123D
:1001800093071004EF000012130300009303000014
:10019000EF00402893073004EF00C010EF00807B91
:1001A0001303100093030000EF00C0269307200400
:1001B000EF00400FEF00007A13030000930350009C
:1001C000EF0040259307A005EF00C00DEF008078F9
:1001D000EF00802B1303000093030000EF00802347
:1001E0001301C1FF2320C100171600001306C68AA1
:1001F000EF0080260326010013014100EF00C041FB
:100200006F000000130181FF232011002322A100B1
:10021000370500201305C5022300F50093F7070FEB
:1002200093E78700EF000034EF00807DEF00407D12
:1002300093E7C700EF000033EF00807CEF00407CC5
:1002400093F7B70FEF000032EF00807BEF00407BA9
:10025000370500201305C5028307050093F7F70053
:100260009397470093E78700EF00C02FEF00407996
:10027000EF00007993E7C700EF00C02EEF00407851
:10028000EF00007893F7B70FEF00C02DEF00407735
:10029000EF00007703254100832001001301810056
:1002A00067800000130181FF232011002322A10099
:1002B000370500201305C5022320F50093F7070F2B
:1002C00093E79700EF00002AEF008073EF00407380
:1002D00093E7D700EF000029EF008072EF00407233
:1002E00093F7B70FEF000028EF008071EF00407127
:1002F000370500201305C5028327050093F7F70093
:100300009397470093E79700EF00C025EF00406FF9
:10031000EF00006F93E7D700EF00C024EF00406EBE
:10032000EF00006E93F7B70FEF00C023EF00406DB2
:10033000EF00006D032541008320010013018100BF
:1003400067800000130181FF232011002322F100A8
:10035000EF0040689307C003EF00C020EF00406A41
:10036000EF00006A93078003EF00C01FEF00806674
:100370009307C003EF00001FEF008068EF004068A4
:1003800093078003EF00001EEF00C0649307C003D3
:10039000EF00401DEF00C066EF008066930780030A
:1003A000EF00401CEF0000639307C002EF00801BCA
:1003B000EF000065EF00C06493078002EF00801A31
:1003C000EF00406193078002EFF0DFE3EF0040634E
:1003D000EF0000639307C000EFF0DFE2EF00406240
:1003E000EF00006293076000EFF0DFE1EF00406193
:1003F000EF00006193071000EFF0DFE0EF004060D6
:10040000EF00006083274100832001001301810079
:10041000678000001301C1FF232011006300030265
:100420001303000C3303730093070300EFF09FDD09
:1004300083200100130141006780000013030008BE
:100440003303730093070300EFF0DFDB8320010029
:100450001301410067800000130181FF2320110078
:100460002322F1008307060063880700EFF09FE373
:10047000130616006FF01FFF832741008320010041
:100480001301810067800000130181FF2320110008
:100490002322F10093071000EFF0DFD6EF00405663
:1004A000EF000056832741008320010013018100E3
:1004B00067800000130141FF232011002322A100C7
:1004C0002324B100375500401305854183150500ED
:1004D00093F52500E39805FE83258100032541005F
:1004E000832001001301C100678000001301C1FED9
:1004F000232011002322C1002324B1002326A100C0
:100500002328710037550040130505408315050069
:1005100093E505502310B5003755004013054541BC
:100520008315050037550040130585410316050066
:1005300013160601B3E5C500B70303009383130048
:10054000B3F57500E39A75FC832301010325C1000F
:10055000832581000326410083200100130141010E
:1005600067800000130141FF232011002322A10016
:100570002324B1003755004013054541831505007C
:1005800093F50508E38805FE37550040130505413E
:100590002300F5008325810003254100832001000D
:1005A0001301C10067800000130141FF23201100E7
:1005B0002322A1002324B100375500401305054034
:1005C0008315050093F5F5BF2310B5008325810041
:1005D00003254100832001001301C1006780000052
:1005E000130141FF232011002322A1002324B10085
:1005F00037550040130545418315050093F505085F
:10060000E38805FE83258100032541008320010046
:100610001301C10067800000130141FF2320110076
:100620002322A1002324B1003755004013050540C3
:100630008315050093E505202310B500832581006F
:1006400003254100832001001301C10067800000E1
:100650001301C1FE232011002322A1002324B10095
:100660002326C1002328710037550040130505419A
:100670002300F5003755004013054541831505005B
:100680003755004013058541031605001316060172
:10069000B3E5C500B703070093832308B3F57500DE
:1006A000E39A75FC832301010326C10083258100A1
:1006B00003254100832001001301410167800000F0
:1006C000130101FF232011002322A1002324B100E4
:1006D0002326C10037550040130545418315050009
:1006E0003755004013058541031605001316060112
:1006F000B3E5C50037050020130545042320B500E8
:100700000326C100832581000325410083200100C9
:100710001301010167800000130141FF2320110034
:100720002322A1002324B100375500401305454181
:100730008325050093F54500E38805FE83258100A8
:1007400003254100832001001301C10067800000E0
:100750001301C1FE232011002322A1002324B10094
:10076000232661002328C10037030020130343041C
:1007700037550040130545418315050037550040A6
:10078000130585410316050013160601B3E5C500E0
:10079000B703030093832300B3F57500E39A75FC58
:1007A0003755004013054541831505003755004076
:1007B0001305854183150500EFF01FDFEFF0DFE53E
:1007C00037550040130545418325050093F5050481
:1007D000E38805FE375500401305054183070500F2
:1007E0002300F300032601010323C10083258100B8
:1007F00003254100832001001301410167800000AF
:10080000130141FE232011002322A1002324B10063
:100810002326610023287100232A5100232CC100C4
:1008200037550040130505412300F50037550040BA
:1008300013054541831505003755004013058541D3
:100840000316050013160601B3E5C500B703030040
:1008500093832300B3F57500E39A75FC3755004088
:1008600013054541831505003755004013058541A3
:10087000831505009303200063FC530237550040A5
:10088000130545418325050093F50504E38805FE1E
:100890003755004013050541830705002300F30089
:1008A000130313009382F2FF63F453006FF01FFDF4
:1008B00037550040130545418315050093F50504A0
:1008C000E38805FE37550040130505418307050001
:1008D0002300F30013031300EFF01FCDEFF0DFD37D
:1008E00037550040130545418315050093F5050470
:1008F000E38805FE375500401305054183070500D1
:100900002300F30003268101832241018323010197
:100910000323C100832581000325410083200100BA
:100920001301C10167800000130181FF2320110022
:100930002322610037B33201130353401303F3FF43
:10094000E31E03FE03234100832001001301810005
:1009500067800000130181FF232011002322610022
:1009600037B31E001303A3B91303F3FFE31E03FE03
:1009700003234100832001001301810067800000F0
:10098000130181FF23201100232261001303A07DA6
:100990001303F3FFE31E03FE032341008320010042
:1009A0001301810067800000130181FF23201100E3
:1009B0002322610037530000130343E81303F3FFBE
:1009C000E31E03FE03234100832001001301810085
:1009D00067800000130181FF2320110023226100A2
:1009E00037930100130343891303F3FFE31E03FE50
:1009F0000323410083200100130181006780000070
:100A0000130181FF232011002322610013039006AC
:100A10001303F3FFE31E03FE0323410083200100C1
:100A20001301810067800000130101FF23201100E2
:100A3000232271002324A1002326B1003745014061
:100A4000130505808325050093F50508E38E05FC55
:100A500093030400374501401305458023007500CA
:100A600037450140130505808325050093F50504EE
:100A7000E38805FE8325C10003258100832341000F
:100A800083200100130101016780000013000000B2
:040A90000000000062
:100A940020706C65617365207265207A65726F20C1
:100AA4000020622034207765696768696E672000DA
:100AB400207765696768742000207A65726F696EB3
:100AC40067200020706C61636520776569676874CE
:100AD4002035676D200020706C616365207765693F
:0A0AE400676874203130676D200050
:00000001FF
